:0400000063EF00F0BA
:060008004B8283ED16F0AF
:100018004B80D8CFABF0E8CFACF0E0CFADF0FACF63
:10002800AEF0FBCFAFF0D9CFB0F0DACFB1F0F3CF6D
:10003800B2F0F4CFB3F0F2A824EF00F026EF00F00E
:100048002FEF00F0F2A22BEF00F02DEF00F02FEFD2
:1000580000F04FEC1CF0F0A634EF00F036EF00F0A3
:100068003FEF00F0F0A63BEF00F03DEF00F03FEF70
:1000780000F037EC1CF0F0A844EF00F046EF00F079
:100088004FEF00F0F0A24BEF00F04DEF00F04FEF14
:1000980000F01FEC1CF0B3C0F4FFB2C0F3FFB1C016
:1000A800DAFFB0C0D9FFAFC0FBFFAEC0FAFFADC0EA
:1000B800E0FFACC0E8FFABC0D8FF4B901000CEEF1C
:0200C80016F030
:10100000003738392F3435362A3132332D25303DEB
:101010002B2020202020202020200067616D6520CB
:101020006F7665720073636F72653D00256900001D
:101030001DC135F11EC136F11FC137F120C138F194
:1010400021C139F122C13AF123C13BF124C13CF164
:1010500001013CBF2EEF08F031EF08F0010E32EF36
:1010600008F0000E336F346B33513411D8B43BEFBA
:1010700008F03DEF08F04DEF08F03C1F3B1F3A1F12
:10108000391F381F371F361F356D000E36233723A3
:10109000382339233A233B233C230001CBBF53EFB2
:1010A00008F055EF08F056EF08F0CC93CBBF63EF94
:1010B00008F0CB5106E1CA05D8B061EF08F063EF44
:1010C00008F06AEF08F0000E0101306F010E2F6F7B
:1010D0006EEF08F0CAC02FF1CBC030F1C8C031F1BB
:1010E000C9C032F1010133513411D8A47AEF08F0AC
:1010F0007CEF08F084EF08F00001CCA582EF08F047
:1011000084EF08F088EF08F001013107D8A032071A
:10111000000E01013E6F1F0E3D6F000EA16F0FEF1D
:1011200009F001013D07D8A03E07820E3D25D96E8A
:10113000010E3E21DA6E35C100F136C101F137C131
:1011400002F138C103F139C104F13AC105F13BC1E3
:1011500006F13CC107F10A0E086F000E096F000E80
:101160000A6F000E0B6F000E0C6F000E0D6F000E5D
:101170000E6F000E0F6FF6EC0CF000C125F101C1EF
:1011800026F102C127F103C128F104C129F105C1EB
:101190002AF106C12BF107C12CF125C112F127C19B
:1011A00013F1E1EC1BF001011251300FDF6E2F073C
:1011B000D8A030073107D8A0320735C100F136C1B9
:1011C00001F137C102F138C103F139C104F13AC16B
:1011D00005F13BC106F13CC107F10A0E086F000E94
:1011E000096F000E0A6F000E0B6F000E0C6F000EE1
:1011F0000D6F000E0E6F000E0F6F75EC0BF000C13F
:1012000035F101C136F102C137F103C138F104C132
:1012100039F105C13AF106C13BF107C13CF10101C9
:101220003EBF1BEF09F03E5108E13D05D8A01BEF82
:1012300009F01DEF09F04EEF09F035513611371165
:10124000381139113A113B113C11D8A42AEF09F099
:101250002CEF09F091EF08F030BF39EF09F0305171
:1012600006E12F05D8B037EF09F039EF09F091EF1B
:1012700008F032BF44EF09F0325108E13105D8A03F
:1012800044EF09F046EF09F04EEF09F00001CCB34E
:101290004CEF09F04EEF09F091EF08F001013351E6
:1012A0003411D8A456EF09F058EF09F060EF09F0B7
:1012B0000001CCA55EEF09F060EF09F07FEF09F0C7
:1012C00001013D07D8A03E0733513411D8A46BEF7C
:1012D00009F06DEF09F073EF09F0000E2E6F2B0E81
:1012E0002D6F77EF09F0000E2E6F2D0E2D6F820EF1
:1012F0003D25D96E010E3E21DA6E2DC1DFFF1BC1E7
:1013000010F11CC111F1820E01013D25126F010E79
:101310003E21136F31C114F132C115F148EC12F0C6
:1013200010C11BF111C11CF11200D1EC1CF0C70E51
:1013300001010E6F010E0F6FAFEC1AF0C10E01012B
:10134000176F010E186F4EEC0EF0140E0101806F36
:10135000C10E246F010E256F040E266F80C127F188
:10136000A90E286F010E296F050E2A6F59EC17F090
:10137000010180078051D8A4C0EF09F0C2EF09F045
:10138000A8EF09F0C10E246F010E256F030E266F22
:10139000040E276FB90E286F010E296F010E2A6FF8
:1013A00059EC17F04E0E0101756FEB0EE82EFED7CB
:1013B000752FFCD7140E0101816F8151D8A4E3EF82
:1013C00009F0E5EF09F0E7EF09F0DAEF09F0C10EF7
:1013D000246F010E256F030E266F81C127F1B10E18
:1013E000286F010E296F040E2A6F59EC17F0C10EF9
:1013F00001011E6F010E1F6F030E206F8129216FE7
:10140000000E226FEDEC15F0C10E01011E6F010EF2
:101410001F6F030E206F010E216F000E226FEDEC87
:1014200015F0020E0101766F040E756FBA0EE82EEC
:10143000FED7752FFCD7762FFAD700F0040E0101E6
:101440008119D8A426EF0AF028EF0AF064EF0AF019
:10145000C10E1E6F010E1F6F010E206F050E216F52
:101460001B0E226F100E236F9FEC15F0000E010172
:101470007F6F0B0E0101766F260E756F5D0EE82EE5
:10148000FED7752FFCD7762FFAD700D0C10E0101F9
:101490001E6F010E1F6F010E206F050E216F110EC2
:1014A000226F100E236F9FEC15F0C10E01011E6F0D
:1014B000010E1F6F010E206F0D0E216F000E226FA7
:1014C000EDEC15F0A5EF09F07FC16AF16B6BA20E90
:1014D0006C6F010E6D6FA6EC14F0C10E01011E6F52
:1014E000010E1F6F010E206F060E216F250E226F59
:1014F000100E236F9FEC15F0C10E01011E6F010E3F
:101500001F6F010E206F0D0E216FA20E226F010EB4
:10151000236F9FEC15F001018107DDEF09F063EF08
:1015200000F041C1D9FF42C1DAFFDECFF6FFDDCFC7
:10153000F7FFF86A0800F550250AD8A4A2EF0AF0D0
:10154000A4EF0AF057EF0BF041C1D9FF42C1DAFF17
:10155000DE2A000EDD22000E0001C96F000EC86FEA
:10156000C8C0CCF0C9C0CDF0CA69CB6941C1D9FFB0
:1015700042C1DAFFDECFF6FFDDCFF7FFF86A0800E1
:10158000F550640AD8B4C7EF0AF0C9EF0AF0DCEFEF
:101590000AF041C1D9FF42C1DAFFDECFF6FFDDCF4D
:1015A000F7FFF86A0800F550690AD8A4DAEF0AF0E4
:1015B000DCEF0AF01DEF0BF041C1D9FF42C1DAFFA9
:1015C000DE2A000EDD2243C1D9FF44C1DAFFDFCF9E
:1015D00045F1020EDE26DFCF46F1000EDD2245C1C9
:1015E000D9FF46C1DAFFDECF47F1DDCF48F1010177
:1015F000000E48BFFF0E496F4A6F4B6F4C6F4D6F27
:101600004E6F3FC11BF140C11CF147C11DF148C1E4
:101610001EF149C11FF14AC120F14BC121F14CC15A
:1016200022F14DC123F14EC124F118EC08F01BC189
:101630003FF11CC140F174EF0BF041C1D9FF42C131
:10164000DAFFDECFF6FFDDCFF7FFF86A0800F550CE
:10165000250AD8A42EEF0BF030EF0BF049EF0BF07A
:1016600041C1D9FF42C1DAFFDE2A000EDD22000EA1
:101670000101016F250E006F3FC102F140C103F16E
:10168000AEEC12F0000E0101406F010E3F6F74EFDF
:101690000BF041C1D9FF42C1DAFFDE2A000EDD2284
:1016A000000E0101406F000E3F6F74EF0BF041C15F
:1016B000D9FF42C1DAFFDECFF6FFDDCFF7FFF86AD0
:1016C0000800F5500101006F016B3FC102F140C1FC
:1016D00003F1AEEC12F041C1D9FF42C1DAFFDE2ABC
:1016E000000EDD2242EF0BF01200000E0101116F1F
:1016F0000FBF7FEF0BF07DEF0BF091EF0BF00F1FA3
:101700000E1F0D1F0C1F0B1F0A1F091F086D000E57
:1017100009230A230B230C230D230E230F23010E71
:10172000116F07BF98EF0BF096EF0BF0AAEF0BF0DD
:10173000071F061F051F041F031F021F011F006D47
:10174000000E01230223032304230523062307237A
:10175000010E111B21EE12F0070EDE6AE806FDE213
:10176000085109110A110B110C110D110E110F1155
:10177000D8B4BDEF0BF0BFEF0BF011EF0CF0010E82
:10178000106FCDEF0BF0D890083709370A370B37B9
:101790000C370D370E370F37102B0FAFD2EF0BF082
:1017A000D4EF0BF0C3EF0BF0D89012371337143788
:1017B000153716371737183719370851005D095193
:1017C00001590A5102590B5103590C5104590D5139
:1017D00005590E5106590F510759D8A0F2EF0BF0D9
:1017E000F4EF0BF005EF0CF00851005F0951015BBD
:1017F0000A51025B0B51035B0C51045B0D51055BFD
:101800000E51065B0F51075B1281D8900F330E33D8
:101810000D330C330B330A3309330833102FD4EF55
:101820000BF01151D8B417EF0CF019EF0CF029EFB1
:101830000CF0191F181F171F161F151F141F131F39
:10184000126D000E132314231523162317231823B8
:10185000192312C100F113C101F114C102F115C124
:1018600003F116C104F117C105F118C106F119C140
:1018700007F1120000C10AF101C10BF1010104518D
:101880000511D8A446EF0CF048EF0CF04AEF0CF02D
:10189000F5EF0CF00AC1D9FF0BC1DAFF02C1DFFF7F
:1018A00004510A25066F05510B21076FFF0E06250F
:1018B000D96EFF0E0721DA6E02C1DFFF055107E185
:1018C000030E045DD8B067EF0CF069EF0CF06BEF1E
:1018D0000CF0F5EF0CF020EE01F00A51D9260B5177
:1018E000DA2202C1DFFF20EE02F00A51D9260B51A5
:1018F000DA2202C1DFFF04510A25066F05510B21D0
:10190000076FFE0E0625D96EFF0E0721DA6E02C1A3
:10191000DFFF04510A25066F05510B21076FFD0EED
:101920000625D96EFF0E0721DA6E02C1DFFF0551D1
:1019300007E1070E045DD8B0A0EF0CF0A2EF0CF0A9
:10194000A4EF0CF0F5EF0CF020EE03F00A51D926CD
:101950000B51DA2202C1DFFF04510A25066F05513F
:101960000B21076FFC0E0625D96EFF0E0721DA6EDC
:1019700002C1DFFF055107E1090E045DD8B0C3EFD6
:101980000CF0C5EF0CF0C7EF0CF0F5EF0CF00AC14E
:1019900006F10BC107F1061F071F064B072B030EAD
:1019A0000615086F096B08510A2709510B230851C6
:1019B000045F0951055BFC0E0417FF0E0517ECEFE1
:1019C0000CF00AC1D9FF0BC1DAFF02C1DFFF040727
:1019D000D8A005070A4B0B2B04510511D8A4F3EF2F
:1019E0000CF0F5EF0CF0E1EF0CF01200000E01012D
:1019F000116F07BF00EF0DF0FEEF0CF012EF0DF0CE
:101A0000071F061F051F041F031F021F011F006D74
:101A1000000E0123022303230423052306230723A7
:101A2000010E116F0FBF19EF0DF017EF0DF029EF39
:101A30000DF00F1F0E1F0D1F0C1F0B1F0A1F091F7C
:101A4000086D000E09230A230B230C230D230E23FC
:101A50000F23085109110A110B110C110D110E1150
:101A60000F11D8B436EF0DF038EF0DF080EF0DF018
:101A7000010E106F46EF0DF0D890083709370A377E
:101A80000B370C370D370E370F37102B0FAF4BEFCF
:101A90000DF04DEF0DF03CEF0DF00851005D0951D8
:101AA00001590A5102590B5103590C5104590D5156
:101AB00005590E5106590F510759D8A062EF0DF084
:101AC00064EF0DF074EF0DF00851005F0951015BF8
:101AD0000A51025B0B51035B0C51045B0D51055B1A
:101AE0000E51065B0F51075BD8900F330E330D3349
:101AF0000C330B330A3309330833102F4DEF0DF03D
:101B00001151D8B486EF0DF088EF0DF098EF0DF07D
:101B1000071F061F051F041F031F021F011F006D63
:101B2000000E012302230323042305230623072396
:101B300000C100F101C101F102C102F103C103F1D1
:101B400004C104F105C105F106C106F107C107F1A1
:101B50001200010E0101086F00510111D8B4B3EF5A
:101B60000DF0B5EF0DF0C6EF0DF000C1D9FF01C1CA
:101B7000DAFFDF30E832E832070B026F070E02654A
:101B8000C4EF0DF0C6EF0DF02BEF0EF0000E086F56
:101B90004CEF0EF000C1D9FF01C1DAFFDF30E832AF
:101BA000E832070B026F010E036F022BDAEF0DF024
:101BB000D8900337022FD8EF0DF000C1D9FF01C133
:101BC000DAFFDF50070B0101046F0451020DBE0E56
:101BD000F324D96E000EF420DA6EDECF05F1DDCFEE
:101BE00006F105C1D9FF06C1DAFF0351DF124CEF40
:101BF0000EF000C1D9FF01C1DAFFDF30E832E83270
:101C0000070B026F010E036F022B09EF0EF0D89045
:101C10000337022F07EF0EF001010351FF0A046F93
:101C200000C1D9FF01C1DAFFDF50070B056F055175
:101C3000020DBE0EF324D96E000EF420DA6EDECF54
:101C400006F1DDCF07F106C1D9FF07C1DAFF045164
:101C5000DF164CEF0EF000C1D9FF01C1DAFFDFBC87
:101C600034EF0EF037EF0EF0010E38EF0EF0000EED
:101C7000026F036B0351000AD8B441EF0EF0C6EFB8
:101C80000DF00251000AD8B4F9EF0DF0010AD8B4F2
:101C9000CAEF0DF0C6EF0DF008511200010E010160
:101CA0001C6F17511811D8A458EF0EF05AEF0EF010
:101CB0005CEF0EF0EEEF0EF0010E1725006F000E38
:101CC0001821016FA9EC0DF001011C6F17C100F183
:101CD00018C101F1A9EC0DF001011C6F000E1B6F82
:101CE0001B511725196F000E18211A6F020E1925A6
:101CF000006F000E1A21016FA9EC0DF001011B2BE2
:101D0000030E1B6586EF0EF088EF0EF070EF0EF0FD
:101D1000340E0101196FF10EE82EFED7192FFCD7F2
:101D200000D017C113F118C114F1380E0101156F5D
:101D3000DBEC17F00D0E0101196FFB0EE82EFED73C
:101D4000192FFCD700D017C113F118C114F1380EA8
:101D50000101156FDBEC17F0640EE82EFED717C1FA
:101D600013F118C114F1380E0101156FDBEC17F0F7
:101D700017C113F118C114F1010E0101156FDBEC4D
:101D800017F017C113F118C114F1020E0101156FFC
:101D9000DBEC17F017C113F118C114F1060E0101A5
:101DA000156FDBEC17F017C113F118C114F10C0E0D
:101DB0000101156FDBEC17F017C113F118C114F115
:101DC000280E0101156FDBEC17F017C113F118C1D4
:101DD00014F1800E0101156FDBEC17F01200010EFB
:101DE0000101096F00510111D8B4F9EF0EF0FBEFBA
:101DF0000EF00CEF0FF000C1D9FF01C1DAFFDF30A8
:101E0000E832E832070B036F070E03650AEF0FF0A5
:101E10000CEF0FF071EF0FF0000E096F86EF0FF06F
:101E200000C1D9FF01C1DAFFDF30E832E832070B29
:101E3000036F010E046F032B20EF0FF0D8900437CF
:101E4000032F1EEF0FF000C1D9FF01C1DAFFDF50F1
:101E5000070B0101056F0551020DB40EF324D96E75
:101E6000000EF420DA6EDECF06F1DDCF07F106C1F9
:101E7000D9FF07C1DAFF0451DF1286EF0FF000C16E
:101E8000D9FF01C1DAFFDF30E832E832070B036F18
:101E9000010E046F032B4FEF0FF0D8900437032F80
:101EA0004DEF0FF001010451FF0A056F00C1D9FF8A
:101EB00001C1DAFFDF50070B066F0651020DB40EA9
:101EC000F324D96E000EF420DA6EDECF07F1DDCFF9
:101ED00008F107C1D9FF08C1DAFF0551DF1686EF07
:101EE0000FF00251036F046B0451000AD8B47BEF6A
:101EF0000FF00CEF0FF00351000AD8B43FEF0FF0D2
:101F0000010AD8B410EF0FF00CEF0FF009511200D6
:101F10004BA28DEF0FF050EF11F0C10E00019B6F3F
:101F2000010E9C6F030E9D6F040E9E6F000E9F6F3F
:101F300038EC16F0C10E0001A16F010EA26F010E68
:101F4000A36F040EA46FB90EA56F010EA66F010E4C
:101F5000A76F9AEC17F0050E01018119D8B4B3EF01
:101F60000FF0B5EF0FF0EBEF0FF0060E8119D8A4CC
:101F7000BCEF0FF0BEEF0FF0F6EF0FF0EBEF0FF04E
:101F8000C10E0001A16F010EA26F030EA36F81C1EC
:101F9000A4F0B10EA56F010EA66F040EA76F9AEC08
:101FA00017F0C10E00019B6F010E9C6F030E9D6F19
:101FB0000101812900019E6F000E9F6F38EC16F021
:101FC000D00E0001A96FC90EE82EFED7A92FFCD7AD
:101FD00000D001018107030E8161F1EF0FF0F3EFF3
:101FE0000FF0C0EF0FF07F2B030E816F030E000187
:101FF000AA6F080EA96F770EE82EFED7A92FFCD77F
:10200000AA2FFAD7C10E00019B6F010E9C6F010E23
:102010009D6F040E9E6F000E9F6F38EC16F0C10E80
:102020000001A16F010EA26F030EA36F040EA46F37
:10203000B90EA56F010EA66F010EA76F9AEC17F0EF
:102040001200010E0001866F35503610D8B42BEF08
:1020500010F02DEF10F03EEF10F035C0D9FF36C074
:10206000DAFFDF30E832E832070B806F070E806559
:102070003CEF10F03EEF10F0A3EF10F0000E866F73
:10208000B8EF10F035C0D9FF36C0DAFFDF30E832E4
:10209000E832070B806F010E816F802B52EF10F03A
:1020A000D8908137802F50EF10F035C0D9FF36C05F
:1020B000DAFFDF50070B0001826F8251020DB40E70
:1020C000F324D96E000EF420DA6EDECF83F0DDCF7C
:1020D00084F083C0D9FF84C0DAFF8151DF12B8EFEA
:1020E00010F035C0D9FF36C0DAFFDF30E832E83211
:1020F000070B806F010E816F802B81EF10F0D8905D
:102100008137802F7FEF10F000018151FF0A826F2D
:1021100035C0D9FF36C0DAFFDF50070B836F83511C
:10212000020DB40EF324D96E000EF420DA6EDECF69
:1021300084F0DDCF85F084C0D9FF85C0DAFF8251FD
:10214000DF16B8EF10F03750806F816B8151000AB5
:10215000D8B4ADEF10F03EEF10F08051000AD8B4C3
:1021600071EF10F0010AD8B442EF10F03EEF10F01A
:1021700086511200010E0A6E01500210D8B4C3EF4E
:1021800010F0C5EF10F0D6EF10F001C0D9FF02C07B
:10219000DAFFDF30E832E832070B046E070E046422
:1021A000D4EF10F0D6EF10F039EF11F0000E0A6EF8
:1021B0004EEF11F001C0D9FF02C0DAFFDF30E83284
:1021C000E832070B046E010E056E042AEAEF10F0E8
:1021D000D8900536042EE8EF10F001C0D9FF02C0F8
:1021E000DAFFDF50070B066E0650020DB40EF32423
:1021F000D96E000EF420DA6EDECF07F0DDCF08F0E6
:1022000007C0D9FF08C0DAFF0550DF124EEF11F00A
:1022100001C0D9FF02C0DAFFDF30E832E832070B35
:10222000046E010E056E042A18EF11F0D8900536E1
:10223000042E16EF11F00550FF0A066E01C0D9FFFB
:1022400002C0DAFFDF50070B076E0750020DB40E15
:10225000F324D96E000EF420DA6EDECF08F0DDCF65
:1022600009F008C0D9FF09C0DAFF0650DF164EEFAB
:1022700011F00350046E056A0550000AD8B443EF0C
:1022800011F0D6EF10F00450000AD8B408EF11F0A6
:10229000010AD8B4DAEF10F0D6EF10F00A501200AD
:1022A000C10E1F6E010E206E030E216E040E226EF3
:1022B000000E236E15EC17F0C10E256E010E266E72
:1022C000010E276E040E286EB90E296E010E2A6EBD
:1022D000010E2B6ED7EC18F0050E01018119D8B450
:1022E00074EF11F076EF11F0A7EF11F0060E8119DF
:1022F000D8A47DEF11F07FEF11F0B2EF11F0A7EF4E
:1023000011F0C10E256E010E266E030E276E81C1DF
:1023100028F0B10E296E010E2A6E040E2B6ED7EC3A
:1023200018F0C10E1F6E010E206E030E216E01010A
:102330008129226E000E236E15EC17F0D00E2D6E43
:10234000CA0EE82EFED72D2EFCD701018107030E01
:102350008161ADEF11F0AFEF11F081EF11F07F2B44
:10236000030E816F030E2E6E080E2D6E770EE82E73
:10237000FED72D2EFCD72E2EFAD700F0C10E1F6EE1
:10238000010E206E010E216E040E226E000E236ED1
:1023900015EC17F0C10E256E010E266E030E276E8A
:1023A000040E286EB90E296E010E2A6E010E2B6ED8
:1023B000D7EC18F01200010E0101046F0051011159
:1023C000D8A4E5EF11F0E7EF11F027EF12F0000EBF
:1023D000046F46EF12F020EE03F00051D9260151B0
:1023E000DA22DE04D8A4F7EF11F0F9EF11F0FCEFD8
:1023F00011F0F18C46EF12F0F19C46EF12F020EE56
:1024000003F00051D9260151DA22DE04D8A40BEFE3
:1024100012F00DEF12F010EF12F0F18A46EF12F009
:10242000F19A46EF12F020EE03F00051D926015147
:10243000DA22DE04D8A41FEF12F021EF12F024EF0D
:1024400012F0F18846EF12F0F19846EF12F020EE0C
:1024500004F00051D9260151DA22DF50026F036BDC
:102460000351000AD8B437EF12F046EF12F00251D0
:10247000000AD8B4EBEF11F0010AD8B4FFEF11F065
:10248000030AD8B413EF12F046EF12F00451120011
:102490000001CCA14EEF12F050EF12F05AEF12F003
:1024A00012C109F113C10AF110C10BF111C10CF1F4
:1024B000BDEC1BF0010115BF60EF12F062EF12F0EE
:1024C00068EF12F014C119F115C11AF16CEF12F096
:1024D000000E1A6F000E196F000E186F000E176FA6
:1024E0007FEF12F0000E016F200E006F10C102F19D
:1024F00011C103F1AEEC12F00101174B182B195169
:10250000175D1851800A166F1A51800A1659D8A003
:102510008CEF12F08EEF12F072EF12F00001CCB1DE
:1025200094EF12F096EF12F0A0EF12F012C109F141
:1025300013C10AF110C10BF111C10CF1BDEC1BF07C
:1025400012C100F113C101F102EC1CF0010119519B
:102550000025106F1A510121116F12000101025163
:102560000311D8B4B6EF12F0B8EF12F0C1EF12F0C9
:1025700002510311D8A4BFEF12F0C1EF12F0C6EF61
:1025800012F00051D4EC1CF013EF13F020EE09F020
:102590000251D9260351DA22DE50DE10D8B4D3EF2F
:1025A00012F0D5EF12F0F0EF12F020EE09F0025128
:1025B000D9260351DA2210EE03F00251E12603512D
:1025C000E222DE50E65CE650800A086FDE50800AA8
:1025D0000859D8B0EEEF12F0F0EF12F013EF13F04D
:1025E00020EE03F00251D9260351DA22DECF04F1A6
:1025F000DDCF05F102C1D9FF03C1DAFFDECF06F15D
:10260000DDCF07F104510625D96E05510721DA6E99
:1026100000C1DFFF20EE03F00251D9260351DA2278
:10262000DE2A000EDD221200010E01011D6F17517E
:102630001811D8A41EEF13F020EF13F024EF13F0BD
:10264000000E1D6F78EF13F01A075BEF13F017C140
:1026500013F118C114F11A51800F156FDBEC17F04C
:1026600001011D6F78EF13F017C113F118C114F1B8
:102670001A51C00F156FDBEC17F001011D6F78EFD9
:1026800013F017C113F118C114F11A51940F156FFB
:10269000DBEC17F001011D6F78EF13F017C113F198
:1026A00018C114F11A51D40F156FDBEC17F00101AA
:1026B0001D6F78EF13F019511B6F1C6B1C51000A32
:1026C000D8B465EF13F078EF13F01B51010AD8B4BA
:1026D00027EF13F0030AD8B434EF13F0010AD8B48B
:1026E00041EF13F0070AD8B44EEF13F078EF13F070
:1026F0001D511200010E00019A6F94519511D8A43A
:1027000084EF13F086EF13F08AEF13F0000E9A6F48
:10271000DEEF13F09707C1EF13F094C090F095C06F
:1027200091F09751800F926F59EC18F000019A6F59
:10273000DEEF13F094C090F095C091F09751C00F68
:10274000926F59EC18F000019A6FDEEF13F094C00D
:1027500090F095C091F09751940F926F59EC18F04A
:1027600000019A6FDEEF13F094C090F095C091F0E5
:102770009751D40F926F59EC18F000019A6FDEEF69
:1027800013F09651986F996B9951000AD8B4CBEF1A
:1027900013F0DEEF13F09851010AD8B48DEF13F067
:1027A000030AD8B49AEF13F0010AD8B4A7EF13F0D4
:1027B000070AD8B4B4EF13F0DEEF13F09A51120009
:1027C000010E0101046F00510111D8A4EAEF13F0CA
:1027D000ECEF13F024EF14F0000E046F43EF14F04D
:1027E000D08EF28843EF14F0D08E20EE02F000512C
:1027F000D9260151DA22DE04D8A401EF14F003EF48
:1028000014F007EF14F0F28EF08C09EF14F0F28C54
:10281000F09CF08643EF14F0D08E20EE02F00051D1
:10282000D9260151DA22DE04D8A419EF14F01BEFE7
:1028300014F01FEF14F0F28EF08E21EF14F0F28CF2
:10284000F09EF08843EF14F020EE04F00051D926FA
:102850000151DA22DF50026F036B0351000AD8B432
:1028600034EF14F043EF14F00251000AD8B4F0EF43
:1028700013F0010AD8B4F4EF13F0030AD8B40CEF44
:1028800014F043EF14F004511200010E1E6E1850A4
:102890001910D8A44EEF14F050EF14F054EF14F0C8
:1028A000000E1E6EA4EF14F01B0687EF14F018C084
:1028B00014F019C015F01B50800F166E3DEC1AF085
:1028C0001E6EA4EF14F018C014F019C015F01B50C0
:1028D000C00F166E3DEC1AF01E6EA4EF14F018C077
:1028E00014F019C015F01B50940F166E3DEC1AF041
:1028F0001E6EA4EF14F018C014F019C015F01B5090
:10290000D40F166E3DEC1AF01E6EA4EF14F01A50A0
:102910001C6E1D6A1D50000AD8B491EF14F0A4EF8C
:1029200014F01C50010AD8B457EF14F0030AD8B4BD
:1029300063EF14F0010AD8B46FEF14F0070AD8B4AB
:102940007BEF14F0A4EF14F01E50120021EE6EF095
:10295000050EDE6AE806FDE2000E0101746F6C519F
:102960006D11D8A4B6EF14F0B8EF14F0BAEF14F06C
:10297000FFEF14F06CC100F16DC101F1000E036FA7
:10298000200E026F000E056F050E046F3AEC0CF07E
:10299000010120EE05F06C51D9266D51DA22000EAE
:1029A000DF6E6E0E576F010E586F2C0E596F100EA2
:1029B0005A6F6AC15BF16BC15CF16CEC1BF0F0EF1C
:1029C00014F06E0E7425D96EDA6A010EDA22745193
:1029D0006C25E16E000E6D21E26EDFCFE7FF742BF8
:1029E0006E0E01017425D96EDA6A010EDA22DF500B
:1029F000D8A4FDEF14F0FFEF14F0E1EF14F0120093
:102A0000010E01010D6F09510A11D8A40AEF15F04A
:102A10000CEF15F02EEF15F0000E0D6F4DEF15F0C9
:102A2000050E0925006F000E0A21016FA9EC0DF0BB
:102A30004DEF15F0050E0925006F000E0A21016FFC
:102A4000A9EC0DF04DEF15F0050E0925006F000EF5
:102A50000A21016FA9EC0DF04DEF15F020EE04F006
:102A60000951D9260A51DA22DF500B6F0C6B0C5139
:102A7000000AD8B43EEF15F04DEF15F00B51000AE7
:102A8000D8B410EF15F0010AD8B41AEF15F0030A04
:102A9000D8B424EF15F04DEF15F001010D511200DF
:102AA000010E0101046F00510111D8A45AEF15F075
:102AB0005CEF15F07EEF15F0000E046F9DEF15F042
:102AC00000C1D9FF01C1DAFFDECFD2F0DDCFD3F0F4
:102AD0009DEF15F000C1D9FF01C1DAFFDECFD0F0C4
:102AE000DDCFD1F09DEF15F000C1D9FF01C1DAFFB4
:102AF000DECFCEF0DDCFCFF09DEF15F020EE04F06D
:102B00000051D9260151DA22DF50026F036B0351C5
:102B1000000AD8B48EEF15F09DEF15F00251000AAF
:102B2000D8B460EF15F0010AD8B46AEF15F0030AC3
:102B3000D8B474EF15F09DEF15F0045112000101A7
:102B40001E511F11D8A4A7EF15F0A9EF15F0ABEF98
:102B500015F0ECEF15F01EC117F11FC118F120C1DF
:102B600019F121C11AF114EC13F0D3EF15F01EC1C5
:102B700013F11FC114F122C1F6FF23C1F7FF000EAC
:102B8000F86E0F0EF76403D00800F55005D0F6CFAD
:102B9000E9FFF7CFEAFFEF500101156F1AEC18F0CB
:102BA0000101224B232B22C1F6FF23C1F7FF000EA8
:102BB000F86E0F0EF76403D00800F55005D0F6CF7D
:102BC000E9FFF7CFEAFFEF500009D8A4EAEF15F0CC
:102BD000ECEF15F0B7EF15F0120001011E511F11B7
:102BE000D8A4F5EF15F0F7EF15F0FBEF15F0000E98
:102BF000236F36EF16F01EC117F11FC118F120C167
:102C000019F121C11AF114EC13F00101236F1EC157
:102C100000F11FC101F1010E026FEFEC0EF0010196
:102C2000236F1EC10AF11FC10BF122390F0B0C6F6C
:102C300015EC19F00101236F1EC10AF11FC10BF140
:102C400016EC1BF00101236F1EC10AF11FC10BF12D
:102C500022C10CF115EC19F00101236F1EC10AF11C
:102C60001FC10BF116EC1BF00101236F2351120061
:102C700000019B519C11D8A440EF16F042EF16F0D2
:102C800046EF16F0000EA06F81EF16F09BC094F097
:102C90009CC095F09DC096F09EC097F07AEC13F022
:102CA0000001A06F9BC035F09CC036F0010E376E5E
:102CB00021EC10F00001A06F9BC087F09CC088F051
:102CC0009F390F0B896F52EC19F00001A06F9BC068
:102CD00087F09CC088F041EC1BF00001A06F9BC006
:102CE00087F09CC088F09FC089F052EC19F0000179
:102CF000A06F9BC087F09CC088F041EC1BF00001E6
:102D0000A06FA05112000600FACF2FF0FBCF30F0D9
:102D1000D9CF31F0DACF32F0F3CF33F0F4CF34F053
:102D2000F2A895EF16F097EF16F0A0EF16F0F2A2CA
:102D30009CEF16F09EEF16F0A0EF16F097EC1CF04B
:102D4000F0A6A5EF16F0A7EF16F0B0EF16F0F0A67C
:102D5000ACEF16F0AEEF16F0B0EF16F07FEC1CF013
:102D6000F0A8B5EF16F0B7EF16F0C0EF16F0F0A22E
:102D7000BCEF16F0BEEF16F0C0EF16F067EC1CF0DB
:102D800034C0F4FF33C0F3FF32C0DAFF31C0D9FFE3
:102D900030C0FBFF2FC0FAFF4B9211005E0EF66EA3
:102DA000390EF76E000EF86E01EEA9F010EE24F069
:102DB0000900F5CFEEFFE550E150FAE1820EF66E24
:102DC000390EF76E000EF86E00EEB4F010EE14F04F
:102DD0000900F5CFEEFFE550E150FAE1960EF66EF0
:102DE000390EF76E000EF86E00EE38F010EE0CF0B3
:102DF0000900F5CFEEFFE550E150FAE101EE77F082
:102E0000320EEE6AE806FDE100EEC8F00C0EEE6A46
:102E1000E806FDE100EE44F0070EEE6AE806FDE18B
:102E20004B904B92000195EF09F01F502010D8A451
:102E30001CEF17F01EEF17F022EF17F0000E246EB4
:102E400057EF17F01FC018F020C019F021C01AF07A
:102E500022C01BF045EC14F0246E1FC001F020C00E
:102E600002F0010E036EBAEC10F0246E1FC00BF0DE
:102E700020C00CF023380F0B0D6E03EC1AF0246EFB
:102E80001FC00BF020C00CF095EC1BF0246E1FC08F
:102E90000BF020C00CF023C00DF003EC1AF0246EF0
:102EA0001FC00BF020C00CF095EC1BF0246E2450DA
:102EB0001200000E01012B6F24512511D8A463EFDD
:102EC00017F065EF17F067EF17F099EF17F024C1CF
:102ED00013F125C114F12A51080DF350400F156F5D
:102EE000DBEC17F0000E01012B6F24C113F125C19B
:102EF00014F12B512825D96E000E2921DA6EDF50EE
:102F0000156F1AEC18F001012B2B070E2B658BEFB8
:102F100017F08DEF17F075EF17F024C11EF125C1E2
:102F20001FF126C120F127C121F12AC122F1EDECC8
:102F300015F01200000E0001A86FA151A211D8A433
:102F4000A4EF17F0A6EF17F0A8EF17F0DAEF17F0DD
:102F5000A1C090F0A2C091F0A751080DF350400F0E
:102F6000926F59EC18F0000E0001A86FA1C090F00C
:102F7000A2C091F0A851A525D96E000EA621DA6E47
:102F8000DF50926F98EC18F00001A82B070EA8658F
:102F9000CCEF17F0CEEF17F0B6EF17F0A1C09BF013
:102FA000A2C09CF0A3C09DF0A4C09EF0A7C09FF05B
:102FB00038EC16F01200010113511411D8A4E3EFFC
:102FC00017F0E5EF17F0E9EF17F0000E166F18EFA6
:102FD00018F013C100F114C101F1000E026FEFEC03
:102FE0000EF00101166F13C10AF114C10BF115396E
:102FF0000F0B0C6F15EC19F00101166F13C10AF1DC
:1030000014C10BF116EC1BF00101166F13C10AF18C
:1030100014C10BF115C10CF115EC19F00101166F7B
:1030200013C10AF114C10BF116EC1BF00101166F6C
:1030300016511200010113511411D8A422EF18F0F7
:1030400024EF18F028EF18F0000E166F57EF18F065
:1030500013C100F114C101F1010E026FEFEC0EF08B
:103060000101166F13C10AF114C10BF115390F0BD1
:103070000C6F15EC19F00101166F13C10AF114C1A0
:103080000BF116EC1BF00101166F13C10AF114C10C
:103090000BF115C10CF115EC19F00101166F13C1FC
:1030A0000AF114C10BF116EC1BF00101166F165159
:1030B0001200000190519111D8A461EF18F063EF54
:1030C00018F067EF18F0000E936F96EF18F090C0AD
:1030D00035F091C036F0000E376E21EC10F0000193
:1030E000936F90C087F091C088F092390F0B896F71
:1030F00052EC19F00001936F90C087F091C088F0F6
:1031000041EC1BF00001936F90C087F091C088F0F4
:1031100092C089F052EC19F00001936F90C087F0D3
:1031200091C088F041EC1BF00001936F93511200A5
:10313000000190519111D8A4A0EF18F0A2EF18F05F
:10314000A6EF18F0000E936FD5EF18F090C035F091
:1031500091C036F0010E376E21EC10F00001936F34
:1031600090C087F091C088F092390F0B896F52ECB4
:1031700019F00001936F90C087F091C088F041EC86
:103180001BF00001936F90C087F091C088F092C04F
:1031900089F052EC19F00001936F90C087F091C054
:1031A00088F041EC1BF00001936F93511200000E68
:1031B0002C6E25502610D8A4E0EF18F0E2EF18F09E
:1031C000E4EF18F014EF19F025C014F026C015F044
:1031D0002B50080DF350400F166E3DEC1AF0000E08
:1031E0002C6E25C014F026C015F02C502924D96E61
:1031F000000E2A20DA6EDF50166E76EC1AF02C2ABA
:10320000070E2C6406EF19F008EF19F0F1EF18F033
:1032100025C01FF026C020F027C021F028C022F0D2
:103220002BC023F015EC17F01200010E0101116FF5
:103230000A510B11D8A41FEF19F021EF19F025EF57
:1032400019F0000E116F50EF19F0000E126F1251AD
:103250000A250D6F000E0B210E6F020E0D25006F5B
:10326000000E0E21016F12C10FF10CC110F10F2BD6
:103270003CEF19F0D89010330F2F3AEF19F00101FD
:103280001051010B026FEFEC0EF00101116F122BC8
:10329000030E12654EEF19F050EF19F027EF19F0F9
:1032A00011511200010E00018E6F87518811D8A4B0
:1032B0005CEF19F05EEF19F062EF19F0000E8E6FFF
:1032C0008DEF19F0000E8F6F8F5187258A6F000EDA
:1032D00088218B6F020E8A25356E000E8B21366E8B
:1032E0008FC08CF089C08DF08C2B79EF19F0D890BD
:1032F0008D338C2F77EF19F000018D51010B376E54
:1033000021EC10F000018E6F8F2B030E8F658BEF79
:1033100019F08DEF19F064EF19F08E511200010EC3
:103320000101046F00510111D8A499EF19F09BEF2E
:1033300019F0A8EF19F0000E046FC7EF19F0F2981A
:10334000C7EF19F0F096C7EF19F0F098C7EF19F032
:1033500020EE04F00051D9260151DA22DF50026F2D
:10336000036B0351000AD8B4B8EF19F0C7EF19F096
:103370000251000AD8B49FEF19F0010AD8B4A2EFA5
:1033800019F0030AD8B4A5EF19F0C7EF19F00451EA
:103390001200010E0101046F00510111D8A4D3EFF6
:1033A00019F0D5EF19F0E2EF19F0000E046F01EFFC
:1033B0001AF0F29201EF1AF0F09001EF1AF0F09289
:1033C00001EF1AF020EE04F00051D9260151DA2263
:1033D000DF50026F036B0351000AD8B4F2EF19F00B
:1033E00001EF1AF00251000AD8B4D9EF19F0010A1E
:1033F000D8B4DCEF19F0030AD8B4DFEF19F001EF0D
:103400001AF004511200010E126E0B500C10D8A4C9
:103410000CEF1AF00EEF1AF012EF1AF0000E126E07
:103420003BEF1AF0000E136E13500B240E6E000EBD
:103430000C200F6E020E0E24016E000E0F20026E85
:1034400013C010F00DC011F0102A29EF1AF0D89017
:103450001132102E27EF1AF01150010B036EBAEC47
:1034600010F0126E132A030E136439EF1AF03BEFBB
:103470001AF014EF1AF01250120014501510D8A4BC
:1034800044EF1AF046EF1AF04AEF1AF0000E176EEA
:1034900074EF1AF014C001F015C002F0000E036EB4
:1034A000BAEC10F0176E14C00BF015C00CF0163803
:1034B0000F0B0D6E03EC1AF0176E14C00BF015C055
:1034C0000CF095EC1BF0176E14C00BF015C00CF04F
:1034D00016C00DF003EC1AF0176E14C00BF015C0F7
:1034E0000CF095EC1BF0176E1750120014501510CD
:1034F000D8A47DEF1AF07FEF1AF083EF1AF0000ED8
:10350000176EADEF1AF014C001F015C002F0010EF5
:10351000036EBAEC10F0176E14C00BF015C00CF06F
:1035200016380F0B0D6E03EC1AF0176E14C00BF06B
:1035300015C00CF095EC1BF0176E14C00BF015C005
:103540000CF016C00DF003EC1AF0176E14C00BF05F
:1035500015C00CF095EC1BF0176E1750120001010E
:103560000E510F11D8A4B7EF1AF0B9EF1AF0BBEF54
:103570001AF0E3EF1AF00EC100F10FC101F18FEC68
:1035800019F00101106F0EC100F10FC101F1DBEC68
:1035900011F00101106F0EC109F10FC10AF100EC29
:1035A00015F00EC100F10FC101F1C9EC19F00EC107
:1035B00000F10FC101F150EC15F00EC100F10FC187
:1035C00001F1E0EC13F0120051C155F152C156F176
:1035D000000E01017E6F000E7D6F02EF1BF04FC1E8
:1035E0003FF150C140F1550E416F010E426F53C182
:1035F00043F154C144F191EC0AF001013F517D27A0
:1036000040517E2355C1F6FF56C1F7FFF86A080006
:10361000F5500009D8A40FEF1BF011EF1BF0EFEFEE
:103620001AF07DC14FF17EC150F1120001010A5123
:103630000B11D8A41EEF1BF020EF1BF024EF1BF0A2
:10364000000E0C6F3FEF1BF0010E0A25006F000EFD
:103650000B21016F010E026FEFEC0EF0060EE82E4B
:10366000FED700D0010E01010A25006F000E0B21CC
:10367000016F000E026FEFEC0EF001010C6F0C51A8
:103680001200000187518811D8A449EF1BF04BEFBD
:103690001BF04FEF1BF0000E896F6AEF1BF0010E5D
:1036A0008725356E000E8821366E010E376E21ECAF
:1036B00010F0060EE82EFED700D0010E000187257F
:1036C000356E000E8821366E000E376E21EC10F03C
:1036D0000001896F895112005B0E01015D6F010EBF
:1036E0005E6F57C15FF158C160F1000E636F000E4D
:1036F000626F000E696F000E686F5F0E4F6F010EF4
:10370000506F59C151F15AC152F15D0E536F010E04
:10371000546FE4EC1AF0010162515725D96E6351E0
:103720005821DA6E000EDF6E12000B500C10D8A478
:103730009CEF1BF09EEF1BF0A2EF1BF0000E0D6E36
:10374000BBEF1BF0010E0B24016E000E0C20026E6D
:10375000010E036EBAEC10F0060EE82EFED700D074
:10376000010E0B24016E000E0C20026E000E036E83
:10377000BAEC10F00D6E0D501200000E01010F6F2B
:10378000000E0E6FD0EF1BF00DC100F1016B0BC1ED
:1037900002F10CC103F1AEEC12F001010E4B0F2B44
:1037A0000E510925D96E0F510A21DA6EDF500D6FC7
:1037B0000D51D8A4DEEF1BF0E0EF1BF0C4EF1BF0BF
:1037C0001200010113BFEFEF1BF0135106E11205C8
:1037D000D8B0EDEF1BF0EFEF1BF0FDEF1BF012C1C7
:1037E00014F113C115F1141F151F144B152B14C11F
:1037F00012F115C113F101EF1CF012C112F113C146
:1038000013F1120000C102F101C103F10BEF1CF032
:103810000101004B012B00C1D9FF01C1DAFFDF50CC
:10382000D8A415EF1CF017EF1CF008EF1CF00101F5
:103830000251005D006F03510159016F1200F092B7
:103840000001CE51CF11D8B428EF1CF02AEF1CF0A4
:1038500036EF1CF002D836EF1CF00500FA6ECE51A0
:10386000FD6ECF51FE6EFF6AFA5012001200F0900A
:103870000001D051D111D8B440EF1CF042EF1CF040
:103880004EEF1CF002D84EEF1CF00500FA6ED0513E
:10389000FD6ED151FE6EFF6AFA5012001200F292D4
:1038A0000001D251D311D8B458EF1CF05AEF1CF0DC
:1038B00066EF1CF002D866EF1CF00500FA6ED251DC
:1038C000FD6ED351FE6EFF6AFA5012001200F092A4
:1038D0000001CE51CF11D8B470EF1CF072EF1CF084
:1038E0007EEF1CF002D87EEF1CF00500FA6ECE5180
:1038F000FD6ECF51FE6EFF6AFA5012001200F0907A
:103900000001D051D111D8B488EF1CF08AEF1CF01F
:1039100096EF1CF002D896EF1CF00500FA6ED0511D
:10392000FD6ED151FE6EFF6AFA5012001200F29243
:103930000001D251D311D8B4A0EF1CF0A2EF1CF0BB
:10394000AEEF1CF002D8AEEF1CF00500FA6ED251BB
:10395000FD6ED351FE6EFF6AFA50120012001F0076
:103960000000000000001515151F04150E040303C8
:10397000021E0E0A0A0A020A121A222A101F010146
:103980000149890F8A0F8B0F8C0F8D0F920F930FA8
:10399000940F950F960F800F810F820F830F840F66
:0A39A0000164720ED36E12001200D3
:020000040020DA
:08000000FFFFFFFFFFFFFFFF00
:020000040030CA
:0E000000FF021F1EFF8181FF0FC00FE00F40A7
:00000001FF
